:020000042000DA
:1060000018040020B9620020BD620020BF62002099
:10601000C1620020C3620020C562002000000000B1
:10602000000000000000000000000000C762002027
:106030000000000000000000C9620020CB620020C8
:106040000000000000000000000000000000000050
:106050000000000000000000000000000000000040
:106060000000000000000000000000000000000030
:106070000000000000000000000000000000000020
:106080000000000000000000000000000000000010
:106090000000000000000000000000000000000000
:1060A00000000000000000000000000000000000F0
:1060B00000000000000000000000000000000000E0
:1060C000CD620020CD620020CD620020CD62002094
:1060D000CD620020CD620020CD620020CD62002084
:1060E000CD620020CD620020CD620020CD62002074
:1060F000CD620020CD620020CD620020CD62002064
:10610000CD620020CD620020CD620020CD62002053
:10611000CD620020CD620020CD6200200000000092
:10612000000000000000000000000000000000006F
:10613000000000000000000000000000000000005F
:10614000000000000000000000000000000000004F
:10615000000000000000000000000000000000003F
:10616000000000000000000000000000000000002F
:10617000000000000000000000000000000000001F
:10618000000000000000000000000000CD620020C0
:10619000CD620020CD620020CD620020CD620020C3
:1061A000CD620020CD620020CD620020CD620020B3
:1061B000CD620020CD630020E5630020F96300205C
:1061C0000D640020CD620020CD620020CD62002051
:1061D000CD620020CD620020CD620020CD62002083
:1061E000CD620020CD620020CD620020CD62002073
:1061F000CD620020CD620020CD620020CD62002063
:10620000CD620020CD620020CD620020CD62002052
:10621000CD620020CD620020CD6200208563002089
:10622000CD620020CD620020CD620020CD62002032
:10623000CD620020CD62002000F002F800F02CF8C2
:106240000AA090E8000C82448344AAF10107DA45D1
:1062500001D100F021F8AFF2090EBAE80F0013F0F7
:10626000010F18BFFB1A43F0010318472403000075
:10627000340300000023002400250026103A28BF24
:1062800078C1FBD8520728BF30C148BF0B607047A8
:106290001FB51FBD10B510BDDFF80CD0FFF7F8FF1C
:1062A00000F05CF900F016F81804002003B4FFF7C2
:1062B000F1FF03BC00F018F805480047FEE7FEE7D1
:1062C000FEE7FEE7FEE7FEE7FEE7FEE7FEE700BFCC
:1062D0003962002010B50446AFF300802046BDE8C7
:1062E0001040FFF7E3BF704701491820ABBEFEE73F
:1062F000260002000F481049086010481049086045
:1063000040F24140486041F2100088608815086101
:106310000220C1F83801C860772000F01F02012177
:1063200091404209920002F1E022C2F8001100BF40
:1063300070470000050001D0BC010040A1AA5585AE
:1063400000A00A400D48810708608007C0680C491A
:1063500008434FF08041C8600846006940F08070F3
:106360000861C810086500BF4FF08040006E00F45F
:106370008010B0F5801FF7D170470000A1AA5585A5
:1063800000E082075846027822B9002242600122CA
:10639000027001E0002202704188002204E00A4BF2
:1063A0009B699BB21944521C102AF8DB41600278A9
:1063B000012A02D1044B1A6105E0C1F34F12428059
:1063C0000022014B1A61704700A00A4001200349D6
:1063D00008610020024948657047000000A00A409B
:1063E00000A0084010B500F027F8002001494865DA
:1063F00010BD000000B0084010B500F01DF80020EE
:106400000149486510BD000000C0084010B500F00B
:1064100013F800200149486510BD000000D0084075
:1064200000F01F02012191404209920002F1E02296
:10643000C2F80011704700005846816831B1164912
:10644000496841F00101144A516005E01249496868
:1064500021F00101104A5160C16831B10E4949680B
:1064600041F002010C4A516005E00B49496821F0F6
:106470000201094A5160016931B10749496841F097
:106480000401054A516005E00349496821F004010F
:10649000014A51607047000000200840072003496E
:1064A00088633F2088650720086170470020084006
:1064B00010B52448244908604FF08041C1F83401E8
:1064C000214908310860091D086000201F49086043
:1064D000486042F20F708860022088655D20FFF7F7
:1064E0009FFF01201949C8600020194908604860D1
:1064F00040F2E7308860022088655E20FFF790FF59
:1065000001201349C860002012490860486047F222
:106510002F508860022088655F20FFF781FF0120EF
:106520000C49C86000200C490860486063208860FE
:10653000022088656020FFF773FF01200649C860CC
:1065400010BD00003F0001003001004000A00840E5
:1065500000B0084000C0084000D0084072B64FF0BC
:10656000000A0A4CA346002502E0002060512D1DC0
:10657000142DFAD362B6FFF7E5FEFFF78FFFFFF7A2
:10658000B9FEFFF795FF62B600BFFEE700000020EE
:10659000A0650020000000201804000074620020A4
:04000005200062B9BC
:00000001FF
