:020000040800F2
:10000000881600208901000891010008930100086A
:100010009501000897010008990100080000000000
:100020000000000000000000000000009B0100082C
:100030009D010008000000009F010008A1010008C8
:10004000A3010008A3010008A3010008A301000800
:10005000A3010008A3010008A3010008A3010008F0
:10006000A3010008A3010008A3010008A3010008E0
:10007000A3010008A30100080D0400084D040008B6
:10008000A3010008A3010008A3010008A3010008C0
:10009000A3010008A3010008A3010008A3010008B0
:1000A000A3010008A3010008A3010008A3010008A0
:1000B000A301000851070008A3010008A3010008DC
:1000C000A3010008A3010008A3010008A301000880
:1000D000A301000861080008A3010008A3010008AB
:1000E000A3010008A3010008A301000800F002F822
:1000F00000F03AF80AA090E8000C82448344AAF188
:100100000107DA4501D100F02FF8AFF2090EBAE885
:100110000F0013F0010F18BFFB1A43F0010318473B
:10012000FC0800001C090000103A24BF78C878C100
:10013000FAD8520724BF30C830C144BF04680C60ED
:10014000704700000023002400250026103A28BF35
:1001500078C1FBD8520728BF30C148BF0B60704739
:100160001FB51FBD10B510BD00F031F81146FFF7E7
:10017000F7FF00F09DFB00F04FF803B4FFF7F2FF2C
:1001800003BC00F057F800000948804709480047C1
:10019000FEE7FEE7FEE7FEE7FEE7FEE7FEE7FEE737
:1001A000FEE7FEE704480549054A064B7047000094
:1001B00039060008ED00000888100020881600208D
:1001C00088120020881200207047704770477546DB
:1001D00000F02CF8AE4605006946534620F00700B3
:1001E000854618B020B5FFF7DDFFBDE820404FF091
:1001F00000064FF000074FF000084FF0000B21F011
:100200000701AC46ACE8C009ACE8C009ACE8C009DD
:10021000ACE8C0098D46704710B50446AFF30080C6
:100220002046BDE81040FFF7A8BF00000048704717
:100230002810002001491820ABBEFEE7260002006E
:10024000704700004D48806940F004004B498861C8
:100250004B48006820F00F004949086008460068D4
:1002600020F0F00008600846006820F47060086024
:100270000846006820F4704008604048406940F03B
:1002800001003E4948610846406820F4404048600B
:100290000846406840F40040486000203949086042
:1002A000091D08603548806940F400703349886151
:1002B0003448001D006840F001003249091D086003
:1002C00030480C30006840F003002E490C310860C3
:1002D0000846006820F0040008600846006840F006
:1002E000180008600846006820F0200008600846F2
:1002F000006840F0C00008600846006820F4807084
:1003000008600846006840F4C0600860084600685D
:1003100020F40060086000201A492831086019495B
:1003200030310860091D08600846006840F400404C
:100330000860002000E0401C42F210718842FADDA3
:100340001048001D006840F004000E49091D0860B7
:1003500000BF0C48001D006800F004000028F8D120
:100360000848001D006840F460200649091D086027
:100370000846006840F48010086070470010024092
:10038000000801400424014008B51348006840F00B
:1003900002001149086008460068104908430E49E8
:1003A0000860081F006840F48070091F0860081D7D
:1003B000006840F48000091D086040F2AA500A233A
:1003C000074A054944310090064800F0EDF8054819
:1003D00000F0E4F808BD00000824014000711E0090
:1003E000000100200800024010B50246FF2004E092
:1003F00012F8013B4340044CE05C0B1EA1F10104E8
:10040000E1B2F5D110BD00001C09000838B55D4609
:10041000AC691CB90A4800F093F80FE0084800F0F6
:100420008FF8B2202346074A07490090044800F09D
:10043000BBF8034800F0B2F80020A86138BD000006
:100440004400024000010020043801402DE9F84337
:100450005C462569D4F8148065612748006800F47B
:100460000030002839D0002084F82000224858307D
:1004700000F066F8A5EB0807002F02DB0020A06162
:1004800002E0C8F58067A5614FF0005090F8089031
:100490000821FFF7A9FF0646B14508D0002004E077
:1004A000FF224FF000510A54401CFF28F8DBB22015
:1004B0000A23124A124900900F48443000F074F8A1
:1004C0000D48443000F06AF80D480830008840F0CC
:1004D00020000B49083108800BE0022003E0FF21D7
:1004E000064A1170401CFF28F9DB0348583000F021
:1004F00027F8BDE8F883000000000240000100205A
:10050000043801400348406840F00F00014948604A
:1005100070470000000002400348406840F470202B
:1005200001494860704700000000024003484068ED
:1005300040F47040014948607047000000000240EC
:1005400000B5024610684FF6FE71084010600020AA
:10055000106050609060D0600F481044B0B13C28EB
:1005600002D0502815D102E0FFF7E0FF11E025206E
:1005700000F01F030121994043099B0003F1E02390
:10058000C3F8001100BFFFF7C7FF02E0FFF7BAFF93
:1005900000BF00BF00BD0000F8FFFDBF016841F0D3
:1005A0000101016070470000F0B50C46059D002177
:1005B000074E766946F00106054F7E61016847F6F1
:1005C000F076B143294343608460C2600160F0BDAE
:1005D0000010024000F01F020121914042099200E8
:1005E00002F1E022C2F80011704700001048806953
:1005F00040F010000E4988610846806940F0010013
:1006000088610846806940F00400886109480068F4
:1006100020F47F60074908600846006840F0B00099
:1006200008600846006840F4806008607047000079
:10063000001002400408014000210020404A1268D6
:1006400042F001023E4B1A601A4652683D4B1A4076
:100650003B4B5A601A4612683B4B1A40384B1A60A3
:100660001A46126822F480221A601A46526822F44E
:10067000FE025A604FF41F029A601A46126842F452
:1006800080321A601A46126842F480321A6000BF43
:100690002B4A126802F40030491C10B9B1F5A06F62
:1006A000F6D1274A126802F400320AB1012000E0B4
:1006B0000020012843D1254A126842F01002234B42
:1006C0001A601A46126822F003021A601A4612686B
:1006D00042F002021A601A4A5268194B5A601A46CE
:1006E00052685A601A46526842F480625A601A464A
:1006F000526822F47C125A601A46526842F4E81298
:100700005A601A46126842F080721A6000BF0C4AA2
:10071000126802F00072002AF9D0094A526822F0E9
:100720000302074B5A601A46526842F002025A60AE
:1007300000BF034A526802F00C02082AF9D1704740
:10074000001002400000FFF8FFFFF6FE002002400C
:1007500070B55C460E4D94F820000E4909780840AB
:1007600058B12846FFF7ECFE0B48008840F0200007
:1007700009490880002084F8200094F820000549E9
:1007800008700648008820F001000449088070BD08
:1007900058000240001000200C38014010040040B6
:1007A0001548C06940F002001349C8611348008829
:1007B00020F00700114908800120104908390880FD
:1007C00040F219700D49203108806420091D08800D
:1007D0000A48001D008840F001000849091D0880F2
:1007E0001D20012181404209920002F1E022C2F85D
:1007F000001100BF704700000010024008040040D4
:100800001548806940F48040134988619C20134951
:10081000088042F20C00091D08800846008840F05C
:10082000200008800D480C30008840F080000B4903
:100830000C3108800846008840F0400008802520E0
:1008400000F01F02012191404209920002F1E022D2
:10085000C2F8001100BF7047001002400838014084
:1008600038B55C460F48008800F02000C8B1A220CF
:10087000092302070B49091D00900B48FFF794FE5E
:1008800000200A4908800848FFF788FE05480C3018
:10089000008820F0200003490C310880012084F8F2
:1008A000200038BD003801405800024024040040B8
:1008B00072B64FF0000A174CA346002002E0002158
:1008C0002150001D2428FAD3002003E041225107C3
:1008D0000A54401CFF28F9DDFFF788FEFFF790FF60
:1008E000FFF7B0FCFFF75CFF0B48FFF729FE0A4853
:1008F0001430FFF725FE08483C38FFF721FE0E2094
:10090000FFF768FE0F20FFF765FE62B6FFF73CFDBC
:1009100000BFFEE704100020440002400031625393
:10092000C4F5A697B988DBEA7D4C1F2E43722110CF
:1009300087B6E5D4FACB98A93E0F5C6D86B7E4D5AF
:10094000427320113F0E5D6CFBCA99A8C5F4A796AF
:10095000013063527C4D1E2FB889DAEB3D0C5F6E7F
:10096000F9C89BAA84B5E6D7407122137E4F1C2D8F
:10097000BA8BD8E9C7F6A59403326150BB8AD9E88F
:100980007F4E1D2C02336051C6F7A495F8C99AAB6F
:100990003C0D5E6F4170231285B4E7D67A4B18295F
:1009A000BE8FDCEDC3F2A1900736655439085B6A4F
:1009B000FDCC9FAE80B1E2D344752617FCCD9EAF2F
:1009C00038095A6B4574271681B0E3D2BF8EDDEC2F
:1009D0007B4A192806376455C2F3A091477625143F
:1009E00083B2E1D0FECF9CAD3A0B5869043566570F
:1009F000C0F1A293BD8CDFEE79481B2AC1F0A3920F
:100A00000534675678491A2BBC8DDEEF82B3E0D1EE
:100A1000467724153B0A5968FFCE9DAC3C0A000876
:100A2000001000200400000028010008400A00080F
:100A300004100020840600004401000800000000AB
:04000005080000ED02
:00000001FF
