:020000040800F2
:1000000030210020D5000008DD000008DF000008D6
:10001000E1000008E3000008E5000008000000001F
:10002000000000000000000000000000E7000008E1
:10003000E900000800000000EB000008ED000008E7
:10004000EF000008EF000008EF00000800000000CB
:1000500000000000EF000008EF000008C9030008DE
:10006000EF00000800000000EF000008EF000008AB
:10007000EF0000080000000005030008EF00000882
:10008000EF000008EF00000800000000EF0000088B
:1000900059020008000000000000000000000000FD
:1000A000000000000000000000000000EF00000859
:1000B000EF000008EF000008EF000008EF00000864
:1000C000DFF80CD000F018F8004800475904000889
:1000D000302100200648804706480047FEE7FEE73B
:1000E000FEE7FEE7FEE7FEE7FEE7FEE7FEE7FEE7E8
:1000F000A9020008C1000008064C074D06E0E068B0
:1001000040F0010394E8070098471034AC42F6D35E
:10011000FFF7DAFF88040008880400081548012268
:10012000826000BF026802F00402042AFAD14FF490
:100130008172C26040F20472426000BF026802F045
:100140000202022AFAD1C2690B4B1A43C261102281
:100150000A4B1A600A4A916B41F0360121F0C00146
:1001600091634FF48372C260C269034BDB431A4050
:10017000C261704700000240080000080080014092
:1001800000800D40F0B55E460C4C756AB769092DCC
:1001900004D93946082000F049F90DE025B90820B6
:1001A00060631020A06307E03946284600F03EF95E
:1001B000082060631020A063F0BD000000800340B1
:1001C0001048C06940F007500E49C86102200E492E
:1001D000C86048600C2088613C200C49886002207F
:1001E00048600620C8600C2088610A2008498860A1
:1001F000022048600320C8604FF4803008610C2062
:10020000886170470000024000000B4000800B40F6
:1002100000000C400B490C48CA6942F48012CA61C4
:100220000A4ACA620222026140F247320260022296
:100230004260042242612023054A1370CA00054B24
:100240001A6070470000024000000A4000030002EC
:1002500014E400E000E100E010B55A46114B986844
:1002600000029968084400029968084400029968ED
:1002700008448000000A5060147B44B111694FF0BB
:1002800000546050091DC1F30C04146109E04FF0E3
:1002900000510C466050091DC1F30C041461CC06DA
:1002A000546110BD00000A4000B5FFF789FFFFF759
:1002B00035FF00BD2DE9F04180460F465E46104DEA
:1002C00030697061B761A8EB0704C4F30C04746271
:1002D000E0B22860200A2860112C04D2394620465A
:1002E00000F0A4F809E03946082000F09FF8686B98
:1002F00040F0010068632020A863BDE8F0810000A1
:1003000000800340594600200A4A50650A4A90601E
:100310009060906090604888401C40F6C412904203
:1003200006D1064A106800F0020080F0020010605A
:10033000488070470000074000000A4000000B4062
:100340000A49CA6942F48042CA61094A4A620948B4
:1003500000224260A52282600122C2600022426522
:10036000012282659203044B1A607047000002402C
:10037000060000010000074000E100E00E490F48C0
:10038000CA6942F08002CA618A6A42F002228A6225
:10039000022242620B2282627022C26240F2013269
:1003A000026308224263102282636023044A1370AE
:1003B0008022044B1A607047000002400080034016
:1003C00007E400E000E100E0F0B5174D5C46286C62
:1003D00000F0100020B32868C7B22868C6B22868A9
:1003E000C0B246EA00262868C0B246EA0046412F5D
:1003F00002D0422F12D10AE0002020736668228AC0
:10040000121FC2F30C012069FFF754FF06E0012020
:100410002073D4E90401FFF74DFF00BF00BF01E0E6
:10042000FFF7B0FEF0BD00000080034010B55A4653
:10043000084B546A241A546207E04FF00054645881
:100440001C60491CC1F30C01401E0028F5D19161CC
:1004500010BD00000080034072B60A4CA346002580
:1004600002E0002060512D1D2C2DFAD341F2665080
:100470006060FFF7CFFEFFF763FFFFF77FFF62B615
:0804800000BFFEE70020002090
:04000005080000C12E
:00000001FF
