:020000040800F2
:1000000028210020D5000008DD000008DF000008DE
:10001000E1000008E3000008E5000008000000001F
:10002000000000000000000000000000E7000008E1
:10003000E900000800000000EB000008ED000008E7
:10004000EF000008EF000008EF00000800000000CB
:1000500000000000EF000008EF000008ED020008BB
:10006000EF00000800000000EF000008EF000008AB
:10007000EF0000080000000061020008EF00000827
:10008000EF000008EF00000800000000EF0000088B
:100090001D02000800000000000000000000000039
:1000A000000000000000000000000000EF00000859
:1000B000EF000008EF000008EF000008EF00000864
:1000C000DFF80CD000F018F80048004741030008A2
:1000D000282100200648804706480047FEE7FEE743
:1000E000FEE7FEE7FEE7FEE7FEE7FEE7FEE7FEE7E8
:1000F00055020008C1000008064C074D06E0E06804
:1001000040F0010394E8070098471034AC42F6D35E
:10011000FFF7DAFF7803000888030008154801227A
:10012000826000BF026802F00402042AFAD14FF490
:100130008172C26040F20472426000BF026802F045
:100140000202022AFAD1C2690B4B1A43C261102281
:100150000A4B1A600A4A916B41F0360121F0C00146
:1001600091634FF48372C260C269034BDB431A4050
:10017000C261704700000240080000080080014092
:1001800000800D401048C06940F007500E49C8611A
:1001900002200E49C86048600C2088613C200C4950
:1001A0008860022048600620C8600C2088610A2010
:1001B00008498860022048600320C8604FF48030FE
:1001C00008610C20886170470000024000000B406D
:1001D00000800B4000000C400B490C48CA6942F4F7
:1001E0008012CA610A4ACA620222026140F24732A0
:1001F000026002224260042242612023054A1370F9
:10020000CA00054B1A6070470000024000000A4017
:100210000003000214E400E000E100E070B55A467B
:100220000B49D468886800028B68184400028B6808
:10023000184400028B6818448000000A506086B29F
:100240004FF000552E51C4F30C04D46070BD000073
:1002500000000A4000B5FFF795FFFFF75FFF00BD04
:10026000594600200B4A50650B4A906090609060A0
:1002700090604888401C40F6C412904207D1074A5B
:10028000106800F0020080F002001060002048803A
:10029000704700000000074000000A4000000B40CB
:1002A0000E490F48CA6942F08002CA618A6A42F068
:1002B00002228A6200220263022242620B228262CE
:1002C0007022C2621022826340F201320263602314
:1002D000044A13708022044B1A60704700000240E9
:1002E0000080034007E400E000E100E00B48016803
:1002F00001680168016801680168016801680222FB
:100300000260002202604FF00052D2F80120026029
:100310004FF00052D2F80220026070470080034084
:1003200002E008C8121F08C1002AFAD170477047BE
:10033000002001E001C1121F002AFBD1704700001C
:1003400072B60C4DAB46002402E000202851241D5B
:10035000242CFAD3FFF740FFFFF7A2FF002404E0AC
:10036000A1B24FF000500151641C142CF8D362B6B6
:1003700000BFFEE7002000208803000800200020C6
:08038000280100003003000811
:04000005080000C12E
:00000001FF
