:020000040800F2
:10000000701600206D0100087501000877010008D6
:10001000790100087B0100087D0100080000000054
:100020000000000000000000000000007F01000848
:10003000810100080000000083010008850100081C
:100040008701000887010008870100088701000870
:100050008701000887010008870100088701000860
:100060008701000887010008870100088701000850
:1000700087010008870100084D0200085D020008A2
:100080008701000887010008870100088701000830
:100090008701000887010008870100088701000820
:1000A0008701000887010008870100088701000810
:1000B0008701000887010008870100088701000800
:1000C00087010008870100088701000887010008F0
:1000D00087010008B10500088701000887010008B2
:1000E00087010008870100088701000800F002F876
:1000F00000F02CF80AA090E8000C82448344AAF196
:100100000107DA4501D100F021F8AFF2090EBAE893
:100110000F0013F0010F18BFFB1A43F0010318473B
:100120008406000094060000002300240025002619
:10013000103A28BF78C1FBD8520728BF30C148BF4A
:100140000B6070471FB51FBD10B510BD00F031F832
:100150001146FFF7F7FF00F065FA00F04FF803B41F
:10016000FFF7F2FF03BC00F057F800000948804792
:1001700009480047FEE7FEE7FEE7FEE7FEE7FEE789
:10018000FEE7FEE7FEE7FEE704480549054A064BA1
:100190007047000039040008ED00000870100020CE
:1001A00070160020701200207012002070477047F7
:1001B0007047754600F02CF8AE4605006946534678
:1001C00020F00700854618B020B5FFF7DDFFBDE839
:1001D00020404FF000064FF000074FF000084FF0AE
:1001E000000B21F00701AC46ACE8C009ACE8C0093F
:1001F000ACE8C009ACE8C0098D46704710B50446AC
:10020000AFF300802046BDE81040FFF7A8BF000014
:10021000004870470C10002001491820ABBEFEE7D3
:10022000260002007047000010B50246FF2004E0DF
:1002300012F8013B4340044CE05C0B1EA1F10104A9
:10024000E1B2F5D110BD0000A406000800B50248D7
:1002500000F078F800BD000044000240F8B55D46AB
:100260002248006800F4003088B3EC786FF06040FA
:10027000065D1E48583000F065F8601EC1B24FF0B0
:100280000050FFF7D1FF0746BE4208D0002004E02F
:10029000FF224FF000510A54401CFF28F8DBB22027
:1002A00023460207124900901048443000F06EF8CF
:1002B0000020A8700D48443000F062F80C48083067
:1002C000008840F020000A49083108800DE0FFE76F
:1002D000002004E0FF224FF000510A54401CFF2888
:1002E000F8DB0248583000F02DF8F8BD000002405D
:1002F000043801400848806D4FF6FE7108400649F9
:10030000886500208865C8650866486608464068B4
:1003100040F4702048607047000002400848406C7C
:100320004FF6FE710840064948640020486488641E
:10033000C86408650846406840F4704048607047EB
:100340000000024000B5024610684FF6FE710840FA
:1003500010600A48824202D1FFF7E0FF0DE025203D
:1003600000F01F030121994043099B0003F1E023A2
:10037000C3F8001100BFFFF7BDFF00BD44000240FD
:10038000016841F00101016070470000F0B50C46C2
:10039000059D0021094E766946F00106074F7E61F2
:1003A000016847F6F076B143294343608460C26038
:1003B00001604FF40056024F7E60F0BD0010024015
:1003C0000000024000F01F0201219140420992000A
:1003D00002F1E022C2F80011704700001348806962
:1003E00040F01000114988613120114908600F4820
:1003F000806940F001000D4988610846806940F03D
:100400000400886131200B490860081D006820F451
:100410007F60091D08600846006840F0B000086071
:100420000846006840F48060086070470010024091
:10043000001001400008014000210020404A1268DD
:1004400042F001023E4B1A601A4652683D4B1A4078
:100450003B4B5A601A4612683B4B1A40384B1A60A5
:100460001A46126822F480221A601A46526822F450
:10047000FE025A604FF41F029A601A46126842F454
:1004800080321A601A46126842F480321A6000BF45
:100490002B4A126802F40030491C10B9B1F5A06F64
:1004A000F6D1274A126802F400320AB1012000E0B6
:1004B0000020012843D1254A126842F01002234B44
:1004C0001A601A46126822F003021A601A4612686D
:1004D00042F002021A601A4A5268194B5A601A46D0
:1004E00052685A601A46526842F480625A601A464C
:1004F000526822F47C125A601A46526842F4E8129A
:100500005A601A46126842F080721A6000BF0C4AA4
:10051000126802F00072002AF9D0094A526822F0EB
:100520000302074B5A601A46526842F002025A60B0
:1005300000BF034A526802F00C02082AF9D1704742
:10054000001002400000FFF8FFFFF6FE002002400E
:100550001548806940F48040134988619C20134904
:10056000088042F20C00091D08800846008840F00F
:10057000200008800D480C30008840F080000B49B6
:100580000C3108800846008840F040000880252093
:1005900000F01F02012191404209920002F1E02285
:1005A000C2F8001100BF7047001002400838014037
:1005B00038B55C461248008800F02000F0B11048C1
:1005C000001D0088C5B2A2202B4602070C49091D58
:1005D00000900C48FFF7DAFE0A48FFF7D1FE084802
:1005E0000C30008820F0200005490C31088060782C
:1005F000401C6070E5700120A07000BF38BD000095
:1006000000380140580002400CB50021019105E07E
:100610000099491C00910199491C0191019981425D
:10062000F6DB0CBD72B64FF0000A1A4CA346002050
:1006300002E000212150001D0C28FAD34FF0005099
:100640006060002003E0412251070A54401CFF284B
:10065000F9DBFFF7C3FEFFF77BFF0F48FFF772FEE2
:100660000D481430FFF76EFE0E20FFF7ABFE0F2093
:10067000FFF7A8FE62B60CE00120084908600848B0
:10068000FFF7C2FF01200549091D08600448FFF774
:10069000BBFFF1E7001000204400024010080140B9
:1006A00020A1070000316253C4F5A697B988DBEAA0
:1006B0007D4C1F2E4372211087B6E5D4FACB98A942
:1006C0003E0F5C6D86B7E4D5427320113F0E5D6C22
:1006D000FBCA99A8C5F4A796013063527C4D1E2F22
:1006E000B889DAEB3D0C5F6EF9C89BAA84B5E6D7F2
:1006F000407122137E4F1C2DBA8BD8E9C7F6A59402
:1007000003326150BB8AD9E87F4E1D2C0233605101
:10071000C6F7A495F8C99AAB3C0D5E6F41702312E1
:1007200085B4E7D67A4B1829BE8FDCEDC3F2A190D1
:100730000736655439085B6AFDCC9FAE80B1E2D3C1
:1007400044752617FCCD9EAF38095A6B45742716A1
:1007500081B0E3D2BF8EDDEC7B4A192806376455A1
:10076000C2F3A0914776251483B2E1D0FECF9CADB1
:100770003A0B586904356657C0F1A293BD8CDFEE81
:1007800079481B2AC1F0A3920534675678491A2B81
:10079000BC8DDEEF82B3E0D1467724153B0A596861
:1007A000FFCE9DACB40700080010002070060000CA
:0407B0002801000814
:04000005080000ED02
:00000001FF
